{
  "_format": "hh3-artifact-1",
  "contractName": "CheckIn",
  "sourceName": "contracts/CheckIn.sol",
  "abi": [
    {
      "anonymous": false,
      "inputs": [
        {
          "indexed": true,
          "internalType": "address",
          "name": "user",
          "type": "address"
        },
        {
          "indexed": true,
          "internalType": "uint256",
          "name": "day",
          "type": "uint256"
        },
        {
          "indexed": false,
          "internalType": "uint256",
          "name": "totalCheckIns",
          "type": "uint256"
        }
      ],
      "name": "CheckedIn",
      "type": "event"
    },
    {
      "inputs": [],
      "name": "checkIn",
      "outputs": [],
      "stateMutability": "nonpayable",
      "type": "function"
    },
    {
      "inputs": [],
      "name": "getMyStats",
      "outputs": [
        {
          "internalType": "uint256",
          "name": "totalCheckIns",
          "type": "uint256"
        },
        {
          "internalType": "uint256",
          "name": "lastCheckInDay",
          "type": "uint256"
        }
      ],
      "stateMutability": "view",
      "type": "function"
    },
    {
      "inputs": [
        {
          "internalType": "address",
          "name": "user",
          "type": "address"
        }
      ],
      "name": "getStats",
      "outputs": [
        {
          "internalType": "uint256",
          "name": "totalCheckIns",
          "type": "uint256"
        },
        {
          "internalType": "uint256",
          "name": "lastCheckInDay",
          "type": "uint256"
        }
      ],
      "stateMutability": "view",
      "type": "function"
    }
  ],
  "bytecode": "0x6080604052348015600e575f5ffd5b506102678061001c5f395ff3fe608060405234801561000f575f5ffd5b506004361061003f575f3560e01c8063183ff085146100435780637a52723e1461004d578063c23f85d614610096575b5f5ffd5b61004b6100d9565b005b61007d335f9081526020818152604091829020825180840190935280548084526001909101549290910182905291565b6040805192835260208301919091520160405180910390f35b61007d6100a43660046101c0565b6001600160a01b03165f9081526020818152604091829020825180840190935280548084526001909101549290910182905291565b5f6100e762015180426101ed565b335f90815260208190526040902060010154909150811161014e5760405162461bcd60e51b815260206004820152601860248201527f416c726561647920636865636b656420696e20746f6461790000000000000000604482015260640160405180910390fd5b335f90815260208190526040812080546001929061016d90849061020c565b9091555050335f8181526020818152604091829020600181018590555491519182528392917f621d62c6c0c4a0c35e883c6b27ad50ecc3093f08bfaf8aa5f58127d351feeb21910160405180910390a350565b5f602082840312156101d0575f5ffd5b81356001600160a01b03811681146101e6575f5ffd5b9392505050565b5f8261020757634e487b7160e01b5f52601260045260245ffd5b500490565b8082018082111561022b57634e487b7160e01b5f52601160045260245ffd5b9291505056fea264697066735822122021d731d524abc940dddc8148514da27346e32c58e3e974035044727712f9fc8364736f6c634300081c0033",
  "linkReferences": {},
  "deployedLinkReferences": {},
  "immutableReferences": {},
  "inputSourceName": "project/contracts/CheckIn.sol",
  "buildInfoId": "solc-0_8_28-c7e194c017a417d43d861df04563e21caee39b3c"
}